{
  "_format": "hh-sol-artifact-1",
  "contractName": "SupplyChain",
  "sourceName": "contracts/SupplyChain.sol",
  "abi": [
    {
      "inputs": [],
      "stateMutability": "nonpayable",
      "type": "constructor"
    },
    {
      "anonymous": false,
      "inputs": [
        {
          "indexed": true,
          "internalType": "uint256",
          "name": "id",
          "type": "uint256"
        },
        {
          "indexed": false,
          "internalType": "string",
          "name": "name",
          "type": "string"
        },
        {
          "indexed": false,
          "internalType": "string",
          "name": "origin",
          "type": "string"
        },
        {
          "indexed": true,
          "internalType": "address",
          "name": "updater",
          "type": "address"
        },
        {
          "indexed": false,
          "internalType": "string",
          "name": "locationData",
          "type": "string"
        },
        {
          "indexed": false,
          "internalType": "int256",
          "name": "latitude",
          "type": "int256"
        },
        {
          "indexed": false,
          "internalType": "int256",
          "name": "longitude",
          "type": "int256"
        },
        {
          "indexed": false,
          "internalType": "string",
          "name": "condition",
          "type": "string"
        }
      ],
      "name": "ProductAdded",
      "type": "event"
    },
    {
      "anonymous": false,
      "inputs": [
        {
          "indexed": true,
          "internalType": "uint256",
          "name": "id",
          "type": "uint256"
        },
        {
          "indexed": false,
          "internalType": "enum SupplyChain.Status",
          "name": "status",
          "type": "uint8"
        },
        {
          "indexed": true,
          "internalType": "address",
          "name": "updater",
          "type": "address"
        },
        {
          "indexed": false,
          "internalType": "string",
          "name": "locationData",
          "type": "string"
        },
        {
          "indexed": false,
          "internalType": "int256",
          "name": "latitude",
          "type": "int256"
        },
        {
          "indexed": false,
          "internalType": "int256",
          "name": "longitude",
          "type": "int256"
        },
        {
          "indexed": false,
          "internalType": "string",
          "name": "condition",
          "type": "string"
        }
      ],
      "name": "ProductStatusUpdated",
      "type": "event"
    },
    {
      "anonymous": false,
      "inputs": [
        {
          "indexed": true,
          "internalType": "address",
          "name": "supplier",
          "type": "address"
        }
      ],
      "name": "SupplierAdded",
      "type": "event"
    },
    {
      "anonymous": false,
      "inputs": [
        {
          "indexed": true,
          "internalType": "address",
          "name": "supplier",
          "type": "address"
        }
      ],
      "name": "SupplierRemoved",
      "type": "event"
    },
    {
      "inputs": [
        {
          "internalType": "uint256",
          "name": "_id",
          "type": "uint256"
        },
        {
          "internalType": "string",
          "name": "_name",
          "type": "string"
        },
        {
          "internalType": "string",
          "name": "_origin",
          "type": "string"
        },
        {
          "internalType": "string",
          "name": "_locationData",
          "type": "string"
        },
        {
          "internalType": "int256",
          "name": "_latitude",
          "type": "int256"
        },
        {
          "internalType": "int256",
          "name": "_longitude",
          "type": "int256"
        }
      ],
      "name": "addProduct",
      "outputs": [],
      "stateMutability": "nonpayable",
      "type": "function"
    },
    {
      "inputs": [
        {
          "internalType": "address",
          "name": "_supplier",
          "type": "address"
        }
      ],
      "name": "addSupplier",
      "outputs": [],
      "stateMutability": "nonpayable",
      "type": "function"
    },
    {
      "inputs": [
        {
          "internalType": "address",
          "name": "",
          "type": "address"
        }
      ],
      "name": "authorizedSuppliers",
      "outputs": [
        {
          "internalType": "bool",
          "name": "",
          "type": "bool"
        }
      ],
      "stateMutability": "view",
      "type": "function"
    },
    {
      "inputs": [],
      "name": "getAllProducts",
      "outputs": [
        {
          "components": [
            {
              "internalType": "uint256",
              "name": "id",
              "type": "uint256"
            },
            {
              "internalType": "string",
              "name": "name",
              "type": "string"
            },
            {
              "internalType": "string",
              "name": "origin",
              "type": "string"
            },
            {
              "components": [
                {
                  "internalType": "enum SupplyChain.Status",
                  "name": "status",
                  "type": "uint8"
                },
                {
                  "internalType": "uint256",
                  "name": "timestamp",
                  "type": "uint256"
                },
                {
                  "internalType": "address",
                  "name": "updater",
                  "type": "address"
                },
                {
                  "internalType": "string",
                  "name": "locationData",
                  "type": "string"
                },
                {
                  "internalType": "int256",
                  "name": "latitude",
                  "type": "int256"
                },
                {
                  "internalType": "int256",
                  "name": "longitude",
                  "type": "int256"
                },
                {
                  "internalType": "string",
                  "name": "condition",
                  "type": "string"
                }
              ],
              "internalType": "struct SupplyChain.TrackingUpdate[]",
              "name": "history",
              "type": "tuple[]"
            }
          ],
          "internalType": "struct SupplyChain.Product[]",
          "name": "",
          "type": "tuple[]"
        }
      ],
      "stateMutability": "view",
      "type": "function"
    },
    {
      "inputs": [
        {
          "internalType": "uint256",
          "name": "_id",
          "type": "uint256"
        }
      ],
      "name": "getProduct",
      "outputs": [
        {
          "internalType": "uint256",
          "name": "id",
          "type": "uint256"
        },
        {
          "internalType": "string",
          "name": "name",
          "type": "string"
        },
        {
          "internalType": "string",
          "name": "origin",
          "type": "string"
        },
        {
          "components": [
            {
              "internalType": "enum SupplyChain.Status",
              "name": "status",
              "type": "uint8"
            },
            {
              "internalType": "uint256",
              "name": "timestamp",
              "type": "uint256"
            },
            {
              "internalType": "address",
              "name": "updater",
              "type": "address"
            },
            {
              "internalType": "string",
              "name": "locationData",
              "type": "string"
            },
            {
              "internalType": "int256",
              "name": "latitude",
              "type": "int256"
            },
            {
              "internalType": "int256",
              "name": "longitude",
              "type": "int256"
            },
            {
              "internalType": "string",
              "name": "condition",
              "type": "string"
            }
          ],
          "internalType": "struct SupplyChain.TrackingUpdate[]",
          "name": "history",
          "type": "tuple[]"
        }
      ],
      "stateMutability": "view",
      "type": "function"
    },
    {
      "inputs": [
        {
          "internalType": "uint256",
          "name": "_id",
          "type": "uint256"
        }
      ],
      "name": "getProductHistory",
      "outputs": [
        {
          "components": [
            {
              "internalType": "enum SupplyChain.Status",
              "name": "status",
              "type": "uint8"
            },
            {
              "internalType": "uint256",
              "name": "timestamp",
              "type": "uint256"
            },
            {
              "internalType": "address",
              "name": "updater",
              "type": "address"
            },
            {
              "internalType": "string",
              "name": "locationData",
              "type": "string"
            },
            {
              "internalType": "int256",
              "name": "latitude",
              "type": "int256"
            },
            {
              "internalType": "int256",
              "name": "longitude",
              "type": "int256"
            },
            {
              "internalType": "string",
              "name": "condition",
              "type": "string"
            }
          ],
          "internalType": "struct SupplyChain.TrackingUpdate[]",
          "name": "",
          "type": "tuple[]"
        }
      ],
      "stateMutability": "view",
      "type": "function"
    },
    {
      "inputs": [],
      "name": "owner",
      "outputs": [
        {
          "internalType": "address",
          "name": "",
          "type": "address"
        }
      ],
      "stateMutability": "view",
      "type": "function"
    },
    {
      "inputs": [],
      "name": "productCount",
      "outputs": [
        {
          "internalType": "uint256",
          "name": "",
          "type": "uint256"
        }
      ],
      "stateMutability": "view",
      "type": "function"
    },
    {
      "inputs": [
        {
          "internalType": "uint256",
          "name": "",
          "type": "uint256"
        }
      ],
      "name": "productIds",
      "outputs": [
        {
          "internalType": "uint256",
          "name": "",
          "type": "uint256"
        }
      ],
      "stateMutability": "view",
      "type": "function"
    },
    {
      "inputs": [
        {
          "internalType": "uint256",
          "name": "",
          "type": "uint256"
        }
      ],
      "name": "products",
      "outputs": [
        {
          "internalType": "uint256",
          "name": "id",
          "type": "uint256"
        },
        {
          "internalType": "string",
          "name": "name",
          "type": "string"
        },
        {
          "internalType": "string",
          "name": "origin",
          "type": "string"
        }
      ],
      "stateMutability": "view",
      "type": "function"
    },
    {
      "inputs": [
        {
          "internalType": "address",
          "name": "_supplier",
          "type": "address"
        }
      ],
      "name": "removeSupplier",
      "outputs": [],
      "stateMutability": "nonpayable",
      "type": "function"
    },
    {
      "inputs": [
        {
          "internalType": "uint256",
          "name": "_id",
          "type": "uint256"
        },
        {
          "internalType": "uint256",
          "name": "_status",
          "type": "uint256"
        },
        {
          "internalType": "string",
          "name": "_locationData",
          "type": "string"
        },
        {
          "internalType": "int256",
          "name": "_latitude",
          "type": "int256"
        },
        {
          "internalType": "int256",
          "name": "_longitude",
          "type": "int256"
        },
        {
          "internalType": "string",
          "name": "_condition",
          "type": "string"
        }
      ],
      "name": "updateProductStatus",
      "outputs": [],
      "stateMutability": "nonpayable",
      "type": "function"
    }
  ],
  "bytecode": "0x608060405234801561001057600080fd5b50336000806101000a81548173ffffffffffffffffffffffffffffffffffffffff021916908373ffffffffffffffffffffffffffffffffffffffff1602179055506129ed806100606000396000f3fe608060405234801561001057600080fd5b50600436106100b45760003560e01c80637acc0b20116100715780637acc0b201461018b5780638da5cb5b146101bd578063b9db15b4146101db578063cb51bba91461020e578063e0f6ef871461023e578063f455b15b1461025c576100b4565b806302ee3a52146100b95780630f5f817a146100d757806317d8963f146100f357806317df4745146101235780635755080e1461013f57806357a096a11461015b575b600080fd5b6100c1610278565b6040516100ce9190611ca1565b60405180910390f35b6100f160048036038101906100ec9190611d03565b6106b0565b005b61010d60048036038101906101089190611d03565b6107dc565b60405161011a9190611d4b565b60405180910390f35b61013d60048036038101906101389190611d03565b6107fc565b005b61015960048036038101906101549190611ef3565b610927565b005b61017560048036038101906101709190611fd4565b610ccb565b6040516101829190612087565b60405180910390f35b6101a560048036038101906101a09190611fd4565b610f6f565b6040516101b493929190612102565b60405180910390f35b6101c56110a9565b6040516101d29190612156565b60405180910390f35b6101f560048036038101906101f09190611fd4565b6110cd565b6040516102059493929190612171565b60405180910390f35b61022860048036038101906102239190611fd4565b6114d6565b60405161023591906121cb565b60405180910390f35b6102466114fa565b60405161025391906121cb565b60405180910390f35b610276600480360381019061027191906121e6565b611500565b005b6060600060035467ffffffffffffffff81111561029857610297611d9c565b5b6040519080825280602002602001820160405280156102d157816020015b6102be611867565b8152602001906001900390816102b65790505b50905060005b6003548110156106a85760026000600483815481106102f9576102f86122ab565b5b906000526020600020015481526020019081526020016000206040518060800160405290816000820154815260200160018201805461033790612309565b80601f016020809104026020016040519081016040528092919081815260200182805461036390612309565b80156103b05780601f10610385576101008083540402835291602001916103b0565b820191906000526020600020905b81548152906001019060200180831161039357829003601f168201915b505050505081526020016002820180546103c990612309565b80601f01602080910402602001604051908101604052809291908181526020018280546103f590612309565b80156104425780601f1061041757610100808354040283529160200191610442565b820191906000526020600020905b81548152906001019060200180831161042557829003601f168201915b5050505050815260200160038201805480602002602001604051908101604052809291908181526020016000905b8282101561067557838290600052602060002090600702016040518060e00160405290816000820160009054906101000a900460ff1660028111156104b8576104b7611990565b5b60028111156104ca576104c9611990565b5b8152602001600182015481526020016002820160009054906101000a900473ffffffffffffffffffffffffffffffffffffffff1673ffffffffffffffffffffffffffffffffffffffff1673ffffffffffffffffffffffffffffffffffffffff16815260200160038201805461053e90612309565b80601f016020809104026020016040519081016040528092919081815260200182805461056a90612309565b80156105b75780601f1061058c576101008083540402835291602001916105b7565b820191906000526020600020905b81548152906001019060200180831161059a57829003601f168201915b5050505050815260200160048201548152602001600582015481526020016006820180546105e490612309565b80601f016020809104026020016040519081016040528092919081815260200182805461061090612309565b801561065d5780601f106106325761010080835404028352916020019161065d565b820191906000526020600020905b81548152906001019060200180831161064057829003601f168201915b50505050508152505081526020019060010190610470565b50505050815250508282815181106106905761068f6122ab565b5b602002602001018190525080806001019150506102d7565b508091505090565b60008054906101000a900473ffffffffffffffffffffffffffffffffffffffff1673ffffffffffffffffffffffffffffffffffffffff163373ffffffffffffffffffffffffffffffffffffffff161461073e576040517f08c379a0000000000000000000000000000000000000000000000000000000008152600401610735906123ac565b60405180910390fd5b6000600160008373ffffffffffffffffffffffffffffffffffffffff1673ffffffffffffffffffffffffffffffffffffffff16815260200190815260200160002060006101000a81548160ff0219169083151502179055508073ffffffffffffffffffffffffffffffffffffffff167f278a641d7aa9abcb166cd13a30fc6d7f21034d4c003ce509a84214e11faa77c060405160405180910390a250565b60016020528060005260406000206000915054906101000a900460ff1681565b60008054906101000a900473ffffffffffffffffffffffffffffffffffffffff1673ffffffffffffffffffffffffffffffffffffffff163373ffffffffffffffffffffffffffffffffffffffff161461088a576040517f08c379a0000000000000000000000000000000000000000000000000000000008152600401610881906123ac565b60405180910390fd5b60018060008373ffffffffffffffffffffffffffffffffffffffff1673ffffffffffffffffffffffffffffffffffffffff16815260200190815260200160002060006101000a81548160ff0219169083151502179055508073ffffffffffffffffffffffffffffffffffffffff167fa9f13e94f3f7dbf69ac8405e3aa6f43a6f162984687d099c7a5cd9b602552cc260405160405180910390a250565b60008054906101000a900473ffffffffffffffffffffffffffffffffffffffff1673ffffffffffffffffffffffffffffffffffffffff163373ffffffffffffffffffffffffffffffffffffffff1614806109ca5750600160003373ffffffffffffffffffffffffffffffffffffffff1673ffffffffffffffffffffffffffffffffffffffff16815260200190815260200160002060009054906101000a900460ff165b610a09576040517f08c379a0000000000000000000000000000000000000000000000000000000008152600401610a0090612418565b60405180910390fd5b6000600260008881526020019081526020016000206003018054905014610a65576040517f08c379a0000000000000000000000000000000000000000000000000000000008152600401610a5c90612484565b60405180910390fd5b60036000815480929190610a78906124d3565b91905055506004869080600181540180825580915050600190039060005260206000200160009091909190915055600060026000888152602001908152602001600020905086816000018190555085816001019081610ad791906126c7565b5084816002019081610ae991906126c7565b50806003016040518060e0016040528060006002811115610b0d57610b0c611990565b5b81526020014281526020013373ffffffffffffffffffffffffffffffffffffffff1681526020018681526020018581526020018481526020016040518060400160405280600381526020017f4e65770000000000000000000000000000000000000000000000000000000000815250815250908060018154018082558091505060019003906000526020600020906007020160009091909190915060008201518160000160006101000a81548160ff02191690836002811115610bd357610bd2611990565b5b02179055506020820151816001015560408201518160020160006101000a81548173ffffffffffffffffffffffffffffffffffffffff021916908373ffffffffffffffffffffffffffffffffffffffff1602179055506060820151816003019081610c3e91906126c7565b506080820151816004015560a0820151816005015560c0820151816006019081610c6891906126c7565b5050503373ffffffffffffffffffffffffffffffffffffffff16877f35fa24391a459fb87123daa5d698a28fe75bfce23c123839ef1173e3797b24908888888888604051610cba9594939291906127f4565b60405180910390a350505050505050565b60606000600260008481526020019081526020016000206003018054905011610d29576040517f08c379a0000000000000000000000000000000000000000000000000000000008152600401610d20906128bb565b60405180910390fd5b60026000838152602001908152602001600020600301805480602002602001604051908101604052809291908181526020016000905b82821015610f6457838290600052602060002090600702016040518060e00160405290816000820160009054906101000a900460ff166002811115610da757610da6611990565b5b6002811115610db957610db8611990565b5b8152602001600182015481526020016002820160009054906101000a900473ffffffffffffffffffffffffffffffffffffffff1673ffffffffffffffffffffffffffffffffffffffff1673ffffffffffffffffffffffffffffffffffffffff168152602001600382018054610e2d90612309565b80601f0160208091040260200160405190810160405280929190818152602001828054610e5990612309565b8015610ea65780601f10610e7b57610100808354040283529160200191610ea6565b820191906000526020600020905b815481529060010190602001808311610e8957829003601f168201915b505050505081526020016004820154815260200160058201548152602001600682018054610ed390612309565b80601f0160208091040260200160405190810160405280929190818152602001828054610eff90612309565b8015610f4c5780601f10610f2157610100808354040283529160200191610f4c565b820191906000526020600020905b815481529060010190602001808311610f2f57829003601f168201915b50505050508152505081526020019060010190610d5f565b505050509050919050565b6002602052806000526040600020600091509050806000015490806001018054610f9890612309565b80601f0160208091040260200160405190810160405280929190818152602001828054610fc490612309565b80156110115780601f10610fe657610100808354040283529160200191611011565b820191906000526020600020905b815481529060010190602001808311610ff457829003601f168201915b50505050509080600201805461102690612309565b80601f016020809104026020016040519081016040528092919081815260200182805461105290612309565b801561109f5780601f106110745761010080835404028352916020019161109f565b820191906000526020600020905b81548152906001019060200180831161108257829003601f168201915b5050505050905083565b60008054906101000a900473ffffffffffffffffffffffffffffffffffffffff1681565b600060608060606000600260008781526020019081526020016000206003018054905011611130576040517f08c379a0000000000000000000000000000000000000000000000000000000008152600401611127906128bb565b60405180910390fd5b6000600260008781526020019081526020016000206040518060800160405290816000820154815260200160018201805461116a90612309565b80601f016020809104026020016040519081016040528092919081815260200182805461119690612309565b80156111e35780601f106111b8576101008083540402835291602001916111e3565b820191906000526020600020905b8154815290600101906020018083116111c657829003601f168201915b505050505081526020016002820180546111fc90612309565b80601f016020809104026020016040519081016040528092919081815260200182805461122890612309565b80156112755780601f1061124a57610100808354040283529160200191611275565b820191906000526020600020905b81548152906001019060200180831161125857829003601f168201915b5050505050815260200160038201805480602002602001604051908101604052809291908181526020016000905b828210156114a857838290600052602060002090600702016040518060e00160405290816000820160009054906101000a900460ff1660028111156112eb576112ea611990565b5b60028111156112fd576112fc611990565b5b8152602001600182015481526020016002820160009054906101000a900473ffffffffffffffffffffffffffffffffffffffff1673ffffffffffffffffffffffffffffffffffffffff1673ffffffffffffffffffffffffffffffffffffffff16815260200160038201805461137190612309565b80601f016020809104026020016040519081016040528092919081815260200182805461139d90612309565b80156113ea5780601f106113bf576101008083540402835291602001916113ea565b820191906000526020600020905b8154815290600101906020018083116113cd57829003601f168201915b50505050508152602001600482015481526020016005820154815260200160068201805461141790612309565b80601f016020809104026020016040519081016040528092919081815260200182805461144390612309565b80156114905780601f1061146557610100808354040283529160200191611490565b820191906000526020600020905b81548152906001019060200180831161147357829003601f168201915b505050505081525050815260200190600101906112a3565b5050505081525050905080600001518160200151826040015183606001519450945094509450509193509193565b600481815481106114e657600080fd5b906000526020600020016000915090505481565b60035481565b60008054906101000a900473ffffffffffffffffffffffffffffffffffffffff1673ffffffffffffffffffffffffffffffffffffffff163373ffffffffffffffffffffffffffffffffffffffff1614806115a35750600160003373ffffffffffffffffffffffffffffffffffffffff1673ffffffffffffffffffffffffffffffffffffffff16815260200190815260200160002060009054906101000a900460ff165b6115e2576040517f08c379a00000000000000000000000000000000000000000000000000000000081526004016115d990612418565b60405180910390fd5b60006002600088815260200190815260200160002090506000816003018054905011611643576040517f08c379a000000000000000000000000000000000000000000000000000000000815260040161163a906128bb565b60405180910390fd5b60028081111561165657611655611990565b5b861115611698576040517f08c379a000000000000000000000000000000000000000000000000000000000815260040161168f90612927565b60405180910390fd5b806003016040518060e001604052808860028111156116ba576116b9611990565b5b60028111156116cc576116cb611990565b5b81526020014281526020013373ffffffffffffffffffffffffffffffffffffffff16815260200187815260200186815260200185815260200184815250908060018154018082558091505060019003906000526020600020906007020160009091909190915060008201518160000160006101000a81548160ff0219169083600281111561175d5761175c611990565b5b02179055506020820151816001015560408201518160020160006101000a81548173ffffffffffffffffffffffffffffffffffffffff021916908373ffffffffffffffffffffffffffffffffffffffff16021790555060608201518160030190816117c891906126c7565b506080820151816004015560a0820151816005015560c08201518160060190816117f291906126c7565b5050503373ffffffffffffffffffffffffffffffffffffffff16877fee1ef3214163dda0ac8ef92eaef17ef7995be64a817a7dfce1c18f890df3792a88600281111561184157611840611990565b5b88888888604051611856959493929190612956565b60405180910390a350505050505050565b6040518060800160405280600081526020016060815260200160608152602001606081525090565b600081519050919050565b600082825260208201905092915050565b6000819050602082019050919050565b6000819050919050565b6118ce816118bb565b82525050565b600081519050919050565b600082825260208201905092915050565b60005b8381101561190e5780820151818401526020810190506118f3565b60008484015250505050565b6000601f19601f8301169050919050565b6000611936826118d4565b61194081856118df565b93506119508185602086016118f0565b6119598161191a565b840191505092915050565b600081519050919050565b600082825260208201905092915050565b6000819050602082019050919050565b7f4e487b7100000000000000000000000000000000000000000000000000000000600052602160045260246000fd5b600381106119d0576119cf611990565b5b50565b60008190506119e1826119bf565b919050565b60006119f1826119d3565b9050919050565b611a01816119e6565b82525050565b600073ffffffffffffffffffffffffffffffffffffffff82169050919050565b6000611a3282611a07565b9050919050565b611a4281611a27565b82525050565b6000819050919050565b611a5b81611a48565b82525050565b600060e083016000830151611a7960008601826119f8565b506020830151611a8c60208601826118c5565b506040830151611a9f6040860182611a39565b5060608301518482036060860152611ab7828261192b565b9150506080830151611acc6080860182611a52565b5060a0830151611adf60a0860182611a52565b5060c083015184820360c0860152611af7828261192b565b9150508091505092915050565b6000611b108383611a61565b905092915050565b6000602082019050919050565b6000611b3082611964565b611b3a818561196f565b935083602082028501611b4c85611980565b8060005b85811015611b885784840389528151611b698582611b04565b9450611b7483611b18565b925060208a01995050600181019050611b50565b50829750879550505050505092915050565b6000608083016000830151611bb260008601826118c5565b5060208301518482036020860152611bca828261192b565b91505060408301518482036040860152611be4828261192b565b91505060608301518482036060860152611bfe8282611b25565b9150508091505092915050565b6000611c178383611b9a565b905092915050565b6000602082019050919050565b6000611c378261188f565b611c41818561189a565b935083602082028501611c53856118ab565b8060005b85811015611c8f5784840389528151611c708582611c0b565b9450611c7b83611c1f565b925060208a01995050600181019050611c57565b50829750879550505050505092915050565b60006020820190508181036000830152611cbb8184611c2c565b905092915050565b6000604051905090565b600080fd5b600080fd5b611ce081611a27565b8114611ceb57600080fd5b50565b600081359050611cfd81611cd7565b92915050565b600060208284031215611d1957611d18611ccd565b5b6000611d2784828501611cee565b91505092915050565b60008115159050919050565b611d4581611d30565b82525050565b6000602082019050611d606000830184611d3c565b92915050565b611d6f816118bb565b8114611d7a57600080fd5b50565b600081359050611d8c81611d66565b92915050565b600080fd5b600080fd5b7f4e487b7100000000000000000000000000000000000000000000000000000000600052604160045260246000fd5b611dd48261191a565b810181811067ffffffffffffffff82111715611df357611df2611d9c565b5b80604052505050565b6000611e06611cc3565b9050611e128282611dcb565b919050565b600067ffffffffffffffff821115611e3257611e31611d9c565b5b611e3b8261191a565b9050602081019050919050565b82818337600083830152505050565b6000611e6a611e6584611e17565b611dfc565b905082815260208101848484011115611e8657611e85611d97565b5b611e91848285611e48565b509392505050565b600082601f830112611eae57611ead611d92565b5b8135611ebe848260208601611e57565b91505092915050565b611ed081611a48565b8114611edb57600080fd5b50565b600081359050611eed81611ec7565b92915050565b60008060008060008060c08789031215611f1057611f0f611ccd565b5b6000611f1e89828a01611d7d565b965050602087013567ffffffffffffffff811115611f3f57611f3e611cd2565b5b611f4b89828a01611e99565b955050604087013567ffffffffffffffff811115611f6c57611f6b611cd2565b5b611f7889828a01611e99565b945050606087013567ffffffffffffffff811115611f9957611f98611cd2565b5b611fa589828a01611e99565b9350506080611fb689828a01611ede565b92505060a0611fc789828a01611ede565b9150509295509295509295565b600060208284031215611fea57611fe9611ccd565b5b6000611ff884828501611d7d565b91505092915050565b600082825260208201905092915050565b600061201d82611964565b6120278185612001565b93508360208202850161203985611980565b8060005b8581101561207557848403895281516120568582611b04565b945061206183611b18565b925060208a0199505060018101905061203d565b50829750879550505050505092915050565b600060208201905081810360008301526120a18184612012565b905092915050565b6120b2816118bb565b82525050565b600082825260208201905092915050565b60006120d4826118d4565b6120de81856120b8565b93506120ee8185602086016118f0565b6120f78161191a565b840191505092915050565b600060608201905061211760008301866120a9565b818103602083015261212981856120c9565b9050818103604083015261213d81846120c9565b9050949350505050565b61215081611a27565b82525050565b600060208201905061216b6000830184612147565b92915050565b600060808201905061218660008301876120a9565b818103602083015261219881866120c9565b905081810360408301526121ac81856120c9565b905081810360608301526121c08184612012565b905095945050505050565b60006020820190506121e060008301846120a9565b92915050565b60008060008060008060c0878903121561220357612202611ccd565b5b600061221189828a01611d7d565b965050602061222289828a01611d7d565b955050604087013567ffffffffffffffff81111561224357612242611cd2565b5b61224f89828a01611e99565b945050606061226089828a01611ede565b935050608061227189828a01611ede565b92505060a087013567ffffffffffffffff81111561229257612291611cd2565b5b61229e89828a01611e99565b9150509295509295509295565b7f4e487b7100000000000000000000000000000000000000000000000000000000600052603260045260246000fd5b7f4e487b7100000000000000000000000000000000000000000000000000000000600052602260045260246000fd5b6000600282049050600182168061232157607f821691505b602082108103612334576123336122da565b5b50919050565b7f4f6e6c79206f776e65722063616e2063616c6c20746869732066756e6374696f60008201527f6e00000000000000000000000000000000000000000000000000000000000000602082015250565b60006123966021836120b8565b91506123a18261233a565b604082019050919050565b600060208201905081810360008301526123c581612389565b9050919050565b7f4e6f7420617574686f72697a6564000000000000000000000000000000000000600082015250565b6000612402600e836120b8565b915061240d826123cc565b602082019050919050565b60006020820190508181036000830152612431816123f5565b9050919050565b7f50726f6475637420616c72656164792065786973747300000000000000000000600082015250565b600061246e6016836120b8565b915061247982612438565b602082019050919050565b6000602082019050818103600083015261249d81612461565b9050919050565b7f4e487b7100000000000000000000000000000000000000000000000000000000600052601160045260246000fd5b60006124de826118bb565b91507fffffffffffffffffffffffffffffffffffffffffffffffffffffffffffffffff82036125105761250f6124a4565b5b600182019050919050565b60008190508160005260206000209050919050565b60006020601f8301049050919050565b600082821b905092915050565b60006008830261257d7fffffffffffffffffffffffffffffffffffffffffffffffffffffffffffffffff82612540565b6125878683612540565b95508019841693508086168417925050509392505050565b6000819050919050565b60006125c46125bf6125ba846118bb565b61259f565b6118bb565b9050919050565b6000819050919050565b6125de836125a9565b6125f26125ea826125cb565b84845461254d565b825550505050565b600090565b6126076125fa565b6126128184846125d5565b505050565b5b818110156126365761262b6000826125ff565b600181019050612618565b5050565b601f82111561267b5761264c8161251b565b61265584612530565b81016020851015612664578190505b61267861267085612530565b830182612617565b50505b505050565b600082821c905092915050565b600061269e60001984600802612680565b1980831691505092915050565b60006126b7838361268d565b9150826002028217905092915050565b6126d0826118d4565b67ffffffffffffffff8111156126e9576126e8611d9c565b5b6126f38254612309565b6126fe82828561263a565b600060209050601f831160018114612731576000841561271f578287015190505b61272985826126ab565b865550612791565b601f19841661273f8661251b565b60005b8281101561276757848901518255600182019150602085019450602081019050612742565b868310156127845784890151612780601f89168261268d565b8355505b6001600288020188555050505b505050505050565b6127a281611a48565b82525050565b7f4e65770000000000000000000000000000000000000000000000000000000000600082015250565b60006127de6003836120b8565b91506127e9826127a8565b602082019050919050565b600060c082019050818103600083015261280e81886120c9565b9050818103602083015261282281876120c9565b9050818103604083015261283681866120c9565b90506128456060830185612799565b6128526080830184612799565b81810360a0830152612863816127d1565b90509695505050505050565b7f50726f6475637420646f6573206e6f7420657869737400000000000000000000600082015250565b60006128a56016836120b8565b91506128b08261286f565b602082019050919050565b600060208201905081810360008301526128d481612898565b9050919050565b7f496e76616c696420737461747573000000000000000000000000000000000000600082015250565b6000612911600e836120b8565b915061291c826128db565b602082019050919050565b6000602082019050818103600083015261294081612904565b9050919050565b612950816119e6565b82525050565b600060a08201905061296b6000830188612947565b818103602083015261297d81876120c9565b905061298c6040830186612799565b6129996060830185612799565b81810360808301526129ab81846120c9565b9050969550505050505056fea2646970667358221220df6555a03dc070a0fa080771ecdced2623da7721b324dae07d0c85c67656dac764736f6c63430008180033",
  "linkReferences": {},
  "deployedLinkReferences": {}
}