{
  "_format": "hh-sol-artifact-1",
  "contractName": "SupplyChain",
  "sourceName": "contracts/SupplyChain.sol",
  "abi": [
    {
      "inputs": [],
      "stateMutability": "nonpayable",
      "type": "constructor"
    },
    {
      "anonymous": false,
      "inputs": [
        {
          "indexed": true,
          "internalType": "uint256",
          "name": "id",
          "type": "uint256"
        },
        {
          "indexed": false,
          "internalType": "string",
          "name": "name",
          "type": "string"
        },
        {
          "indexed": false,
          "internalType": "string",
          "name": "origin",
          "type": "string"
        },
        {
          "indexed": true,
          "internalType": "address",
          "name": "updater",
          "type": "address"
        },
        {
          "indexed": false,
          "internalType": "string",
          "name": "locationData",
          "type": "string"
        },
        {
          "indexed": false,
          "internalType": "int256",
          "name": "latitude",
          "type": "int256"
        },
        {
          "indexed": false,
          "internalType": "int256",
          "name": "longitude",
          "type": "int256"
        }
      ],
      "name": "ProductAdded",
      "type": "event"
    },
    {
      "anonymous": false,
      "inputs": [
        {
          "indexed": true,
          "internalType": "uint256",
          "name": "id",
          "type": "uint256"
        },
        {
          "indexed": false,
          "internalType": "enum SupplyChain.Status",
          "name": "status",
          "type": "uint8"
        },
        {
          "indexed": true,
          "internalType": "address",
          "name": "updater",
          "type": "address"
        },
        {
          "indexed": false,
          "internalType": "string",
          "name": "locationData",
          "type": "string"
        },
        {
          "indexed": false,
          "internalType": "int256",
          "name": "latitude",
          "type": "int256"
        },
        {
          "indexed": false,
          "internalType": "int256",
          "name": "longitude",
          "type": "int256"
        }
      ],
      "name": "ProductStatusUpdated",
      "type": "event"
    },
    {
      "anonymous": false,
      "inputs": [
        {
          "indexed": true,
          "internalType": "address",
          "name": "supplier",
          "type": "address"
        }
      ],
      "name": "SupplierAdded",
      "type": "event"
    },
    {
      "anonymous": false,
      "inputs": [
        {
          "indexed": true,
          "internalType": "address",
          "name": "supplier",
          "type": "address"
        }
      ],
      "name": "SupplierRemoved",
      "type": "event"
    },
    {
      "inputs": [
        {
          "internalType": "uint256",
          "name": "_id",
          "type": "uint256"
        },
        {
          "internalType": "string",
          "name": "_name",
          "type": "string"
        },
        {
          "internalType": "string",
          "name": "_origin",
          "type": "string"
        },
        {
          "internalType": "string",
          "name": "_locationData",
          "type": "string"
        },
        {
          "internalType": "int256",
          "name": "_latitude",
          "type": "int256"
        },
        {
          "internalType": "int256",
          "name": "_longitude",
          "type": "int256"
        }
      ],
      "name": "addProduct",
      "outputs": [],
      "stateMutability": "nonpayable",
      "type": "function"
    },
    {
      "inputs": [
        {
          "internalType": "address",
          "name": "_supplier",
          "type": "address"
        }
      ],
      "name": "addSupplier",
      "outputs": [],
      "stateMutability": "nonpayable",
      "type": "function"
    },
    {
      "inputs": [
        {
          "internalType": "address",
          "name": "",
          "type": "address"
        }
      ],
      "name": "authorizedSuppliers",
      "outputs": [
        {
          "internalType": "bool",
          "name": "",
          "type": "bool"
        }
      ],
      "stateMutability": "view",
      "type": "function"
    },
    {
      "inputs": [],
      "name": "getAllProducts",
      "outputs": [
        {
          "components": [
            {
              "internalType": "uint256",
              "name": "id",
              "type": "uint256"
            },
            {
              "internalType": "string",
              "name": "name",
              "type": "string"
            },
            {
              "internalType": "string",
              "name": "origin",
              "type": "string"
            },
            {
              "components": [
                {
                  "internalType": "enum SupplyChain.Status",
                  "name": "status",
                  "type": "uint8"
                },
                {
                  "internalType": "uint256",
                  "name": "timestamp",
                  "type": "uint256"
                },
                {
                  "internalType": "address",
                  "name": "updater",
                  "type": "address"
                },
                {
                  "internalType": "string",
                  "name": "locationData",
                  "type": "string"
                },
                {
                  "internalType": "int256",
                  "name": "latitude",
                  "type": "int256"
                },
                {
                  "internalType": "int256",
                  "name": "longitude",
                  "type": "int256"
                }
              ],
              "internalType": "struct SupplyChain.TrackingUpdate[]",
              "name": "history",
              "type": "tuple[]"
            }
          ],
          "internalType": "struct SupplyChain.Product[]",
          "name": "",
          "type": "tuple[]"
        }
      ],
      "stateMutability": "view",
      "type": "function"
    },
    {
      "inputs": [
        {
          "internalType": "uint256",
          "name": "_id",
          "type": "uint256"
        }
      ],
      "name": "getProduct",
      "outputs": [
        {
          "internalType": "uint256",
          "name": "id",
          "type": "uint256"
        },
        {
          "internalType": "string",
          "name": "name",
          "type": "string"
        },
        {
          "internalType": "string",
          "name": "origin",
          "type": "string"
        },
        {
          "components": [
            {
              "internalType": "enum SupplyChain.Status",
              "name": "status",
              "type": "uint8"
            },
            {
              "internalType": "uint256",
              "name": "timestamp",
              "type": "uint256"
            },
            {
              "internalType": "address",
              "name": "updater",
              "type": "address"
            },
            {
              "internalType": "string",
              "name": "locationData",
              "type": "string"
            },
            {
              "internalType": "int256",
              "name": "latitude",
              "type": "int256"
            },
            {
              "internalType": "int256",
              "name": "longitude",
              "type": "int256"
            }
          ],
          "internalType": "struct SupplyChain.TrackingUpdate[]",
          "name": "history",
          "type": "tuple[]"
        }
      ],
      "stateMutability": "view",
      "type": "function"
    },
    {
      "inputs": [
        {
          "internalType": "uint256",
          "name": "_id",
          "type": "uint256"
        }
      ],
      "name": "getProductHistory",
      "outputs": [
        {
          "components": [
            {
              "internalType": "enum SupplyChain.Status",
              "name": "status",
              "type": "uint8"
            },
            {
              "internalType": "uint256",
              "name": "timestamp",
              "type": "uint256"
            },
            {
              "internalType": "address",
              "name": "updater",
              "type": "address"
            },
            {
              "internalType": "string",
              "name": "locationData",
              "type": "string"
            },
            {
              "internalType": "int256",
              "name": "latitude",
              "type": "int256"
            },
            {
              "internalType": "int256",
              "name": "longitude",
              "type": "int256"
            }
          ],
          "internalType": "struct SupplyChain.TrackingUpdate[]",
          "name": "",
          "type": "tuple[]"
        }
      ],
      "stateMutability": "view",
      "type": "function"
    },
    {
      "inputs": [],
      "name": "owner",
      "outputs": [
        {
          "internalType": "address",
          "name": "",
          "type": "address"
        }
      ],
      "stateMutability": "view",
      "type": "function"
    },
    {
      "inputs": [],
      "name": "productCount",
      "outputs": [
        {
          "internalType": "uint256",
          "name": "",
          "type": "uint256"
        }
      ],
      "stateMutability": "view",
      "type": "function"
    },
    {
      "inputs": [
        {
          "internalType": "uint256",
          "name": "",
          "type": "uint256"
        }
      ],
      "name": "productIds",
      "outputs": [
        {
          "internalType": "uint256",
          "name": "",
          "type": "uint256"
        }
      ],
      "stateMutability": "view",
      "type": "function"
    },
    {
      "inputs": [
        {
          "internalType": "uint256",
          "name": "",
          "type": "uint256"
        }
      ],
      "name": "products",
      "outputs": [
        {
          "internalType": "uint256",
          "name": "id",
          "type": "uint256"
        },
        {
          "internalType": "string",
          "name": "name",
          "type": "string"
        },
        {
          "internalType": "string",
          "name": "origin",
          "type": "string"
        }
      ],
      "stateMutability": "view",
      "type": "function"
    },
    {
      "inputs": [
        {
          "internalType": "address",
          "name": "_supplier",
          "type": "address"
        }
      ],
      "name": "removeSupplier",
      "outputs": [],
      "stateMutability": "nonpayable",
      "type": "function"
    },
    {
      "inputs": [
        {
          "internalType": "uint256",
          "name": "_id",
          "type": "uint256"
        },
        {
          "internalType": "uint256",
          "name": "_status",
          "type": "uint256"
        },
        {
          "internalType": "string",
          "name": "_locationData",
          "type": "string"
        },
        {
          "internalType": "int256",
          "name": "_latitude",
          "type": "int256"
        },
        {
          "internalType": "int256",
          "name": "_longitude",
          "type": "int256"
        }
      ],
      "name": "updateProductStatus",
      "outputs": [],
      "stateMutability": "nonpayable",
      "type": "function"
    }
  ],
  "bytecode": "0x608060405234801561001057600080fd5b50336000806101000a81548173ffffffffffffffffffffffffffffffffffffffff021916908373ffffffffffffffffffffffffffffffffffffffff16021790555061270b806100606000396000f3fe608060405234801561001057600080fd5b50600436106100b45760003560e01c80637acc0b20116100715780637acc0b201461018b5780638da5cb5b146101bd578063b9db15b4146101db578063cb51bba91461020e578063d96efae11461023e578063e0f6ef871461025a576100b4565b806302ee3a52146100b95780630f5f817a146100d757806317d8963f146100f357806317df4745146101235780635755080e1461013f57806357a096a11461015b575b600080fd5b6100c1610278565b6040516100ce9190611a61565b60405180910390f35b6100f160048036038101906100ec9190611ac3565b61061e565b005b61010d60048036038101906101089190611ac3565b61074a565b60405161011a9190611b0b565b60405180910390f35b61013d60048036038101906101389190611ac3565b61076a565b005b61015960048036038101906101549190611cb3565b610895565b005b61017560048036038101906101709190611d94565b610be8565b6040516101829190611e47565b60405180910390f35b6101a560048036038101906101a09190611d94565b610dfa565b6040516101b493929190611ec2565b60405180910390f35b6101c5610f34565b6040516101d29190611f16565b60405180910390f35b6101f560048036038101906101f09190611d94565b610f58565b6040516102059493929190611f31565b60405180910390f35b61022860048036038101906102239190611d94565b6112cf565b6040516102359190611f8b565b60405180910390f35b61025860048036038101906102539190611fa6565b6112f3565b005b61026261163b565b60405161026f9190611f8b565b60405180910390f35b6060600060035467ffffffffffffffff81111561029857610297611b5c565b5b6040519080825280602002602001820160405280156102d157816020015b6102be611641565b8152602001906001900390816102b65790505b50905060005b6003548110156106165760026000600483815481106102f9576102f861203d565b5b90600052602060002001548152602001908152602001600020604051806080016040529081600082015481526020016001820180546103379061209b565b80601f01602080910402602001604051908101604052809291908181526020018280546103639061209b565b80156103b05780601f10610385576101008083540402835291602001916103b0565b820191906000526020600020905b81548152906001019060200180831161039357829003601f168201915b505050505081526020016002820180546103c99061209b565b80601f01602080910402602001604051908101604052809291908181526020018280546103f59061209b565b80156104425780601f1061041757610100808354040283529160200191610442565b820191906000526020600020905b81548152906001019060200180831161042557829003601f168201915b5050505050815260200160038201805480602002602001604051908101604052809291908181526020016000905b828210156105e357838290600052602060002090600602016040518060c00160405290816000820160009054906101000a900460ff1660028111156104b8576104b761176a565b5b60028111156104ca576104c961176a565b5b8152602001600182015481526020016002820160009054906101000a900473ffffffffffffffffffffffffffffffffffffffff1673ffffffffffffffffffffffffffffffffffffffff1673ffffffffffffffffffffffffffffffffffffffff16815260200160038201805461053e9061209b565b80601f016020809104026020016040519081016040528092919081815260200182805461056a9061209b565b80156105b75780601f1061058c576101008083540402835291602001916105b7565b820191906000526020600020905b81548152906001019060200180831161059a57829003601f168201915b505050505081526020016004820154815260200160058201548152505081526020019060010190610470565b50505050815250508282815181106105fe576105fd61203d565b5b602002602001018190525080806001019150506102d7565b508091505090565b60008054906101000a900473ffffffffffffffffffffffffffffffffffffffff1673ffffffffffffffffffffffffffffffffffffffff163373ffffffffffffffffffffffffffffffffffffffff16146106ac576040517f08c379a00000000000000000000000000000000000000000000000000000000081526004016106a39061213e565b60405180910390fd5b6000600160008373ffffffffffffffffffffffffffffffffffffffff1673ffffffffffffffffffffffffffffffffffffffff16815260200190815260200160002060006101000a81548160ff0219169083151502179055508073ffffffffffffffffffffffffffffffffffffffff167f278a641d7aa9abcb166cd13a30fc6d7f21034d4c003ce509a84214e11faa77c060405160405180910390a250565b60016020528060005260406000206000915054906101000a900460ff1681565b60008054906101000a900473ffffffffffffffffffffffffffffffffffffffff1673ffffffffffffffffffffffffffffffffffffffff163373ffffffffffffffffffffffffffffffffffffffff16146107f8576040517f08c379a00000000000000000000000000000000000000000000000000000000081526004016107ef9061213e565b60405180910390fd5b60018060008373ffffffffffffffffffffffffffffffffffffffff1673ffffffffffffffffffffffffffffffffffffffff16815260200190815260200160002060006101000a81548160ff0219169083151502179055508073ffffffffffffffffffffffffffffffffffffffff167fa9f13e94f3f7dbf69ac8405e3aa6f43a6f162984687d099c7a5cd9b602552cc260405160405180910390a250565b60008054906101000a900473ffffffffffffffffffffffffffffffffffffffff1673ffffffffffffffffffffffffffffffffffffffff163373ffffffffffffffffffffffffffffffffffffffff1614806109385750600160003373ffffffffffffffffffffffffffffffffffffffff1673ffffffffffffffffffffffffffffffffffffffff16815260200190815260200160002060009054906101000a900460ff165b610977576040517f08c379a000000000000000000000000000000000000000000000000000000000815260040161096e906121aa565b60405180910390fd5b60006002600088815260200190815260200160002060030180549050146109d3576040517f08c379a00000000000000000000000000000000000000000000000000000000081526004016109ca90612216565b60405180910390fd5b600360008154809291906109e690612265565b91905055506004869080600181540180825580915050600190039060005260206000200160009091909190915055600060026000888152602001908152602001600020905086816000018190555085816001019081610a459190612459565b5084816002019081610a579190612459565b50806003016040518060c0016040528060006002811115610a7b57610a7a61176a565b5b81526020014281526020013373ffffffffffffffffffffffffffffffffffffffff16815260200186815260200185815260200184815250908060018154018082558091505060019003906000526020600020906006020160009091909190915060008201518160000160006101000a81548160ff02191690836002811115610b0657610b0561176a565b5b02179055506020820151816001015560408201518160020160006101000a81548173ffffffffffffffffffffffffffffffffffffffff021916908373ffffffffffffffffffffffffffffffffffffffff1602179055506060820151816003019081610b719190612459565b506080820151816004015560a0820151816005015550503373ffffffffffffffffffffffffffffffffffffffff16877f4bb728d26b07c907bb819fe1f623f1fd96c3b217d7cd1cd8bb9097c9430fc2f28888888888604051610bd795949392919061253a565b60405180910390a350505050505050565b60606000600260008481526020019081526020016000206003018054905011610c46576040517f08c379a0000000000000000000000000000000000000000000000000000000008152600401610c3d906125ee565b60405180910390fd5b60026000838152602001908152602001600020600301805480602002602001604051908101604052809291908181526020016000905b82821015610def57838290600052602060002090600602016040518060c00160405290816000820160009054906101000a900460ff166002811115610cc457610cc361176a565b5b6002811115610cd657610cd561176a565b5b8152602001600182015481526020016002820160009054906101000a900473ffffffffffffffffffffffffffffffffffffffff1673ffffffffffffffffffffffffffffffffffffffff1673ffffffffffffffffffffffffffffffffffffffff168152602001600382018054610d4a9061209b565b80601f0160208091040260200160405190810160405280929190818152602001828054610d769061209b565b8015610dc35780601f10610d9857610100808354040283529160200191610dc3565b820191906000526020600020905b815481529060010190602001808311610da657829003601f168201915b505050505081526020016004820154815260200160058201548152505081526020019060010190610c7c565b505050509050919050565b6002602052806000526040600020600091509050806000015490806001018054610e239061209b565b80601f0160208091040260200160405190810160405280929190818152602001828054610e4f9061209b565b8015610e9c5780601f10610e7157610100808354040283529160200191610e9c565b820191906000526020600020905b815481529060010190602001808311610e7f57829003601f168201915b505050505090806002018054610eb19061209b565b80601f0160208091040260200160405190810160405280929190818152602001828054610edd9061209b565b8015610f2a5780601f10610eff57610100808354040283529160200191610f2a565b820191906000526020600020905b815481529060010190602001808311610f0d57829003601f168201915b5050505050905083565b60008054906101000a900473ffffffffffffffffffffffffffffffffffffffff1681565b600060608060606000600260008781526020019081526020016000206003018054905011610fbb576040517f08c379a0000000000000000000000000000000000000000000000000000000008152600401610fb2906125ee565b60405180910390fd5b60006002600087815260200190815260200160002060405180608001604052908160008201548152602001600182018054610ff59061209b565b80601f01602080910402602001604051908101604052809291908181526020018280546110219061209b565b801561106e5780601f106110435761010080835404028352916020019161106e565b820191906000526020600020905b81548152906001019060200180831161105157829003601f168201915b505050505081526020016002820180546110879061209b565b80601f01602080910402602001604051908101604052809291908181526020018280546110b39061209b565b80156111005780601f106110d557610100808354040283529160200191611100565b820191906000526020600020905b8154815290600101906020018083116110e357829003601f168201915b5050505050815260200160038201805480602002602001604051908101604052809291908181526020016000905b828210156112a157838290600052602060002090600602016040518060c00160405290816000820160009054906101000a900460ff1660028111156111765761117561176a565b5b60028111156111885761118761176a565b5b8152602001600182015481526020016002820160009054906101000a900473ffffffffffffffffffffffffffffffffffffffff1673ffffffffffffffffffffffffffffffffffffffff1673ffffffffffffffffffffffffffffffffffffffff1681526020016003820180546111fc9061209b565b80601f01602080910402602001604051908101604052809291908181526020018280546112289061209b565b80156112755780601f1061124a57610100808354040283529160200191611275565b820191906000526020600020905b81548152906001019060200180831161125857829003601f168201915b50505050508152602001600482015481526020016005820154815250508152602001906001019061112e565b5050505081525050905080600001518160200151826040015183606001519450945094509450509193509193565b600481815481106112df57600080fd5b906000526020600020016000915090505481565b60008054906101000a900473ffffffffffffffffffffffffffffffffffffffff1673ffffffffffffffffffffffffffffffffffffffff163373ffffffffffffffffffffffffffffffffffffffff1614806113965750600160003373ffffffffffffffffffffffffffffffffffffffff1673ffffffffffffffffffffffffffffffffffffffff16815260200190815260200160002060009054906101000a900460ff165b6113d5576040517f08c379a00000000000000000000000000000000000000000000000000000000081526004016113cc906121aa565b60405180910390fd5b60006002600087815260200190815260200160002090506000816003018054905011611436576040517f08c379a000000000000000000000000000000000000000000000000000000000815260040161142d906125ee565b60405180910390fd5b6002808111156114495761144861176a565b5b85111561148b576040517f08c379a00000000000000000000000000000000000000000000000000000000081526004016114829061265a565b60405180910390fd5b806003016040518060c001604052808760028111156114ad576114ac61176a565b5b60028111156114bf576114be61176a565b5b81526020014281526020013373ffffffffffffffffffffffffffffffffffffffff16815260200186815260200185815260200184815250908060018154018082558091505060019003906000526020600020906006020160009091909190915060008201518160000160006101000a81548160ff0219169083600281111561154a5761154961176a565b5b02179055506020820151816001015560408201518160020160006101000a81548173ffffffffffffffffffffffffffffffffffffffff021916908373ffffffffffffffffffffffffffffffffffffffff16021790555060608201518160030190816115b59190612459565b506080820151816004015560a0820151816005015550503373ffffffffffffffffffffffffffffffffffffffff16867f382c5b281838a12ca21434a4ca200916758406034c94b9a62e3b5afb429ef21a8760028111156116185761161761176a565b5b87878760405161162b9493929190612689565b60405180910390a3505050505050565b60035481565b6040518060800160405280600081526020016060815260200160608152602001606081525090565b600081519050919050565b600082825260208201905092915050565b6000819050602082019050919050565b6000819050919050565b6116a881611695565b82525050565b600081519050919050565b600082825260208201905092915050565b60005b838110156116e85780820151818401526020810190506116cd565b60008484015250505050565b6000601f19601f8301169050919050565b6000611710826116ae565b61171a81856116b9565b935061172a8185602086016116ca565b611733816116f4565b840191505092915050565b600081519050919050565b600082825260208201905092915050565b6000819050602082019050919050565b7f4e487b7100000000000000000000000000000000000000000000000000000000600052602160045260246000fd5b600381106117aa576117a961176a565b5b50565b60008190506117bb82611799565b919050565b60006117cb826117ad565b9050919050565b6117db816117c0565b82525050565b600073ffffffffffffffffffffffffffffffffffffffff82169050919050565b600061180c826117e1565b9050919050565b61181c81611801565b82525050565b6000819050919050565b61183581611822565b82525050565b600060c08301600083015161185360008601826117d2565b506020830151611866602086018261169f565b5060408301516118796040860182611813565b50606083015184820360608601526118918282611705565b91505060808301516118a6608086018261182c565b5060a08301516118b960a086018261182c565b508091505092915050565b60006118d0838361183b565b905092915050565b6000602082019050919050565b60006118f08261173e565b6118fa8185611749565b93508360208202850161190c8561175a565b8060005b85811015611948578484038952815161192985826118c4565b9450611934836118d8565b925060208a01995050600181019050611910565b50829750879550505050505092915050565b6000608083016000830151611972600086018261169f565b506020830151848203602086015261198a8282611705565b915050604083015184820360408601526119a48282611705565b915050606083015184820360608601526119be82826118e5565b9150508091505092915050565b60006119d7838361195a565b905092915050565b6000602082019050919050565b60006119f782611669565b611a018185611674565b935083602082028501611a1385611685565b8060005b85811015611a4f5784840389528151611a3085826119cb565b9450611a3b836119df565b925060208a01995050600181019050611a17565b50829750879550505050505092915050565b60006020820190508181036000830152611a7b81846119ec565b905092915050565b6000604051905090565b600080fd5b600080fd5b611aa081611801565b8114611aab57600080fd5b50565b600081359050611abd81611a97565b92915050565b600060208284031215611ad957611ad8611a8d565b5b6000611ae784828501611aae565b91505092915050565b60008115159050919050565b611b0581611af0565b82525050565b6000602082019050611b206000830184611afc565b92915050565b611b2f81611695565b8114611b3a57600080fd5b50565b600081359050611b4c81611b26565b92915050565b600080fd5b600080fd5b7f4e487b7100000000000000000000000000000000000000000000000000000000600052604160045260246000fd5b611b94826116f4565b810181811067ffffffffffffffff82111715611bb357611bb2611b5c565b5b80604052505050565b6000611bc6611a83565b9050611bd28282611b8b565b919050565b600067ffffffffffffffff821115611bf257611bf1611b5c565b5b611bfb826116f4565b9050602081019050919050565b82818337600083830152505050565b6000611c2a611c2584611bd7565b611bbc565b905082815260208101848484011115611c4657611c45611b57565b5b611c51848285611c08565b509392505050565b600082601f830112611c6e57611c6d611b52565b5b8135611c7e848260208601611c17565b91505092915050565b611c9081611822565b8114611c9b57600080fd5b50565b600081359050611cad81611c87565b92915050565b60008060008060008060c08789031215611cd057611ccf611a8d565b5b6000611cde89828a01611b3d565b965050602087013567ffffffffffffffff811115611cff57611cfe611a92565b5b611d0b89828a01611c59565b955050604087013567ffffffffffffffff811115611d2c57611d2b611a92565b5b611d3889828a01611c59565b945050606087013567ffffffffffffffff811115611d5957611d58611a92565b5b611d6589828a01611c59565b9350506080611d7689828a01611c9e565b92505060a0611d8789828a01611c9e565b9150509295509295509295565b600060208284031215611daa57611da9611a8d565b5b6000611db884828501611b3d565b91505092915050565b600082825260208201905092915050565b6000611ddd8261173e565b611de78185611dc1565b935083602082028501611df98561175a565b8060005b85811015611e355784840389528151611e1685826118c4565b9450611e21836118d8565b925060208a01995050600181019050611dfd565b50829750879550505050505092915050565b60006020820190508181036000830152611e618184611dd2565b905092915050565b611e7281611695565b82525050565b600082825260208201905092915050565b6000611e94826116ae565b611e9e8185611e78565b9350611eae8185602086016116ca565b611eb7816116f4565b840191505092915050565b6000606082019050611ed76000830186611e69565b8181036020830152611ee98185611e89565b90508181036040830152611efd8184611e89565b9050949350505050565b611f1081611801565b82525050565b6000602082019050611f2b6000830184611f07565b92915050565b6000608082019050611f466000830187611e69565b8181036020830152611f588186611e89565b90508181036040830152611f6c8185611e89565b90508181036060830152611f808184611dd2565b905095945050505050565b6000602082019050611fa06000830184611e69565b92915050565b600080600080600060a08688031215611fc257611fc1611a8d565b5b6000611fd088828901611b3d565b9550506020611fe188828901611b3d565b945050604086013567ffffffffffffffff81111561200257612001611a92565b5b61200e88828901611c59565b935050606061201f88828901611c9e565b925050608061203088828901611c9e565b9150509295509295909350565b7f4e487b7100000000000000000000000000000000000000000000000000000000600052603260045260246000fd5b7f4e487b7100000000000000000000000000000000000000000000000000000000600052602260045260246000fd5b600060028204905060018216806120b357607f821691505b6020821081036120c6576120c561206c565b5b50919050565b7f4f6e6c79206f776e65722063616e2063616c6c20746869732066756e6374696f60008201527f6e00000000000000000000000000000000000000000000000000000000000000602082015250565b6000612128602183611e78565b9150612133826120cc565b604082019050919050565b600060208201905081810360008301526121578161211b565b9050919050565b7f4e6f7420617574686f72697a6564000000000000000000000000000000000000600082015250565b6000612194600e83611e78565b915061219f8261215e565b602082019050919050565b600060208201905081810360008301526121c381612187565b9050919050565b7f50726f6475637420616c72656164792065786973747300000000000000000000600082015250565b6000612200601683611e78565b915061220b826121ca565b602082019050919050565b6000602082019050818103600083015261222f816121f3565b9050919050565b7f4e487b7100000000000000000000000000000000000000000000000000000000600052601160045260246000fd5b600061227082611695565b91507fffffffffffffffffffffffffffffffffffffffffffffffffffffffffffffffff82036122a2576122a1612236565b5b600182019050919050565b60008190508160005260206000209050919050565b60006020601f8301049050919050565b600082821b905092915050565b60006008830261230f7fffffffffffffffffffffffffffffffffffffffffffffffffffffffffffffffff826122d2565b61231986836122d2565b95508019841693508086168417925050509392505050565b6000819050919050565b600061235661235161234c84611695565b612331565b611695565b9050919050565b6000819050919050565b6123708361233b565b61238461237c8261235d565b8484546122df565b825550505050565b600090565b61239961238c565b6123a4818484612367565b505050565b5b818110156123c8576123bd600082612391565b6001810190506123aa565b5050565b601f82111561240d576123de816122ad565b6123e7846122c2565b810160208510156123f6578190505b61240a612402856122c2565b8301826123a9565b50505b505050565b600082821c905092915050565b600061243060001984600802612412565b1980831691505092915050565b6000612449838361241f565b9150826002028217905092915050565b612462826116ae565b67ffffffffffffffff81111561247b5761247a611b5c565b5b612485825461209b565b6124908282856123cc565b600060209050601f8311600181146124c357600084156124b1578287015190505b6124bb858261243d565b865550612523565b601f1984166124d1866122ad565b60005b828110156124f9578489015182556001820191506020850194506020810190506124d4565b868310156125165784890151612512601f89168261241f565b8355505b6001600288020188555050505b505050505050565b61253481611822565b82525050565b600060a08201905081810360008301526125548188611e89565b905081810360208301526125688187611e89565b9050818103604083015261257c8186611e89565b905061258b606083018561252b565b612598608083018461252b565b9695505050505050565b7f50726f6475637420646f6573206e6f7420657869737400000000000000000000600082015250565b60006125d8601683611e78565b91506125e3826125a2565b602082019050919050565b60006020820190508181036000830152612607816125cb565b9050919050565b7f496e76616c696420737461747573000000000000000000000000000000000000600082015250565b6000612644600e83611e78565b915061264f8261260e565b602082019050919050565b6000602082019050818103600083015261267381612637565b9050919050565b612683816117c0565b82525050565b600060808201905061269e600083018761267a565b81810360208301526126b08186611e89565b90506126bf604083018561252b565b6126cc606083018461252b565b9594505050505056fea26469706673582212204270772df7d5f7e2b790193af84db7bcc8f66f36c511063693b8e8bb456e84de64736f6c63430008180033",
  "linkReferences": {},
  "deployedLinkReferences": {}
}